Component: ARM Compiler 5.06 update 5 (build 528) Tool: armlink [4d35e2]

==============================================================================

Section Cross References

    main.o(i.main) refers to delay.o(i.delay_init) for delay_init
    main.o(i.main) refers to led.o(i.LED_Configuration) for LED_Configuration
    main.o(i.main) refers to stm32f107.o(i.NVIC_Configuration) for NVIC_Configuration
    main.o(i.main) refers to sci.o(i.USART_232_Configuration) for USART_232_Configuration
    main.o(i.main) refers to dma.o(i.RS232_DMA_Init) for RS232_DMA_Init
    main.o(i.main) refers to spi.o(i.WIRELESS_SPI_Init) for WIRELESS_SPI_Init
    main.o(i.main) refers to rc522.o(i.RC522_Reset) for RC522_Reset
    main.o(i.main) refers to rc522.o(i.Parse_Data) for Parse_Data
    main.o(i.main) refers to sci.o(.data) for RS232_REC_Flag
    delay.o(i.delay_init) refers to misc.o(i.SysTick_CLKSourceConfig) for SysTick_CLKSourceConfig
    delay.o(i.delay_init) refers to system_stm32f10x_1.o(.data) for SystemCoreClock
    delay.o(i.delay_init) refers to delay.o(.data) for fac_us
    delay.o(i.delay_ms) refers to delay.o(.data) for fac_ms
    delay.o(i.delay_us) refers to delay.o(.data) for fac_us
    dma.o(i.RS232_DMA_Init) refers to stm32f10x_rcc.o(i.RCC_AHBPeriphClockCmd) for RCC_AHBPeriphClockCmd
    dma.o(i.RS232_DMA_Init) refers to stm32f10x_dma.o(i.DMA_DeInit) for DMA_DeInit
    dma.o(i.RS232_DMA_Init) refers to stm32f10x_dma.o(i.DMA_Init) for DMA_Init
    dma.o(i.RS232_DMA_Init) refers to stm32f10x_dma.o(i.DMA_ITConfig) for DMA_ITConfig
==============================================================================

Removing Unused input sections from the image.

    Removing delay.o(i.delay_ms), (76 bytes).
    Removing delay.o(i.delay_us), (76 bytes).
    Removing key.o(i.Key_Configuration), (44 bytes).
    Removing key.o(i.Key_Delay), (10 bytes).
    Removing key.o(i.Key_Value), (152 bytes).
    Removing led.o(i.LED_Blink), (116 bytes).
    Removing led.o(i.LED_Delay), (10 bytes).
    Removing rc522.o(i.RC522SelfTest), (384 bytes).
    Removing sci.o(i.RS232_DMA_Send), (72 bytes).
    Removing stm32f107.o(i.TIM_Configuration), (82 bytes).
    Removing zqwl-timer.o(i.TIM2_Configuration), (74 bytes).
    Removing core_cm3.o(.emb_text), (32 bytes).
    Removing system_stm32f10x_1.o(i.SystemCoreClockUpdate), (256 bytes).
    Removing misc.o(i.NVIC_SystemLPConfig), (32 bytes).
    Removing stm32f10x_adc.o(i.ADC_AnalogWatchdogCmd), (20 bytes).
    Removing stm32f10x_adc.o(i.ADC_AnalogWatchdogSingleChannelConfig), (16 bytes).
    Removing stm32f10x_adc.o(i.ADC_AnalogWatchdogThresholdsConfig), (6 bytes).
    Removing stm32f10x_adc.o(i.ADC_AutoInjectedConvCmd), (22 bytes).
==============================================================================

Image Symbol Table

    Local Symbols

    Symbol Name                              Value     Ov Type        Size  Object(Section)

    ../clib/angel/boardlib.s                 0x00000000   Number         0  boardinit3.o ABSOLUTE
    ../clib/angel/boardlib.s                 0x00000000   Number         0  boardinit2.o ABSOLUTE
    ../clib/angel/boardlib.s                 0x00000000   Number         0  boardshut.o ABSOLUTE
    ../clib/angel/boardlib.s                 0x00000000   Number         0  boardinit1.o ABSOLUTE
    ../clib/angel/handlers.s                 0x00000000   Number         0  __scatter_copy.o ABSOLUTE
    ../clib/angel/handlers.s                 0x00000000   Number         0  __scatter_zi.o ABSOLUTE
    ../clib/angel/kernel.s                   0x00000000   Number         0  __rtentry4.o ABSOLUTE
    ../clib/angel/kernel.s                   0x00000000   Number         0  __rtentry2.o ABSOLUTE
    ../clib/angel/kernel.s                   0x00000000   Number         0  rtexit2.o ABSOLUTE
    ../clib/angel/kernel.s                   0x00000000   Number         0  rtexit.o ABSOLUTE
    ../clib/angel/kernel.s                   0x00000000   Number         0  __rtentry.o ABSOLUTE
    ../clib/angel/rt.s                       0x00000000   Number         0  rt_raise.o ABSOLUTE
    ../clib/angel/scatter.s                  0x00000000   Number         0  __scatter.o ABSOLUTE
    ../clib/angel/startup.s                  0x00000000   Number         0  __main.o ABSOLUTE
    ../clib/angel/sys.s                      0x00000000   Number         0  indicate_semi.o ABSOLUTE
    ../clib/angel/sys.s                      0x00000000   Number         0  use_no_semi.o ABSOLUTE
    ../clib/angel/sys.s                      0x00000000   Number         0  sys_stackheap_outer.o ABSOLUTE
    ../clib/angel/sys.s                      0x00000000   Number         0  libspace.o ABSOLUTE
    ../clib/angel/sysapp.c                   0x00000000   Number         0  sys_command.o ABSOLUTE
    ../clib/angel/sysapp.c                   0x00000000   Number         0  sys_exit.o ABSOLUTE
    ../clib/angel/sysapp.c                   0x00000000   Number         0  sys_wrch.o ABSOLUTE
    ../clib/armsys.c                         0x00000000   Number         0  _get_argv_nomalloc.o ABSOLUTE
    ../clib/armsys.c                         0x00000000   Number         0  no_argv.o ABSOLUTE
    ../clib/armsys.c                         0x00000000   Number         0  argv_veneer.o ABSOLUTE
    ../clib/armsys.c                         0x00000000   Number         0  argv_veneer.o ABSOLUTE
    ../clib/heapalloc.c                      0x00000000   Number         0  hrguard.o ABSOLUTE
    ../clib/heapaux.c                        0x00000000   Number         0  heapauxi.o ABSOLUTE
    ../clib/libinit.s                        0x00000000   Number         0  libinit.o ABSOLUTE
    ../clib/libinit.s                        0x00000000   Number         0  libshutdown2.o ABSOLUTE
    ../clib/libinit.s                        0x00000000   Number         0  libshutdown.o ABSOLUTE
    ../clib/libinit.s                        0x00000000   Number         0  libinit2.o ABSOLUTE
    ../clib/signal.c                         0x00000000   Number         0  defsig_rtmem_outer.o ABSOLUTE
    ../clib/signal.c                         0x00000000   Number         0  defsig_abrt_inner.o ABSOLUTE
    ../clib/signal.c                         0x00000000   Number         0  defsig_rtmem_formal.o ABSOLUTE
    ../clib/signal.c                         0x00000000   Number         0  defsig_cppl_inner.o ABSOLUTE
    ../clib/signal.c                         0x00000000   Number         0  defsig_pvfn_inner.o ABSOLUTE
    ../clib/signal.c                         0x00000000   Number         0  defsig_stak_inner.o ABSOLUTE
    ../clib/signal.c                         0x00000000   Number         0  defsig_rtred_inner.o ABSOLUTE
    ../clib/signal.c                         0x00000000   Number         0  defsig_fpe_inner.o ABSOLUTE
    ../clib/signal.c                         0x00000000   Number         0  defsig_general.o ABSOLUTE
    ../clib/signal.c                         0x00000000   Number         0  __raise.o ABSOLUTE
    ../clib/signal.c                         0x00000000   Number         0  defsig_rtmem_inner.o ABSOLUTE
    ../clib/signal.c                         0x00000000   Number         0  defsig_segv_inner.o ABSOLUTE
    ../clib/signal.c                         0x00000000   Number         0  defsig_other.o ABSOLUTE
    ../clib/signal.c                         0x00000000   Number         0  defsig_exit.o ABSOLUTE
    ../clib/signal.s                         0x00000000   Number         0  defsig.o ABSOLUTE
    ../clib/stdlib.c                         0x00000000   Number         0  exit.o ABSOLUTE
    ../fplib/fpinit.s                        0x00000000   Number         0  fpinit.o ABSOLUTE
    ..\LIB\CMSIS\CM3\CoreSupport\core_cm3.c  0x00000000   Number         0  core_cm3.o ABSOLUTE
    ..\LIB\CMSIS\CM3\DeviceSupport\ST\STM32F10x\startup\arm\startup_stm32f10x_hd.s 0x00000000   Number         0  startup_stm32f10x_hd.o ABSOLUTE
    ..\LIB\CMSIS\CM3\DeviceSupport\ST\STM32F10x\system_stm32f10x.c 0x00000000   Number         0  system_stm32f10x_1.o ABSOLUTE
    ..\LIB\STM32F10x_StdPeriph_Driver\src\misc.c 0x00000000   Number         0  misc.o ABSOLUTE
    ..\LIB\STM32F10x_StdPeriph_Driver\src\stm32f10x_adc.c 0x00000000   Number         0  stm32f10x_adc.o ABSOLUTE
    ..\LIB\STM32F10x_StdPeriph_Driver\src\stm32f10x_bkp.c 0x00000000   Number         0  stm32f10x_bkp.o ABSOLUTE
    ..\LIB\STM32F10x_StdPeriph_Driver\src\stm32f10x_can.c 0x00000000   Number         0  stm32f10x_can.o ABSOLUTE
    ..\LIB\STM32F10x_StdPeriph_Driver\src\stm32f10x_cec.c 0x00000000   Number         0  stm32f10x_cec.o ABSOLUTE
    ..\LIB\STM32F10x_StdPeriph_Driver\src\stm32f10x_crc.c 0x00000000   Number         0  stm32f10x_crc.o ABSOLUTE
    ..\LIB\STM32F10x_StdPeriph_Driver\src\stm32f10x_dac.c 0x00000000   Number         0  stm32f10x_dac.o ABSOLUTE
    ..\LIB\STM32F10x_StdPeriph_Driver\src\stm32f10x_dbgmcu.c 0x00000000   Number         0  stm32f10x_dbgmcu.o ABSOLUTE
    ..\LIB\STM32F10x_StdPeriph_Driver\src\stm32f10x_dma.c 0x00000000   Number         0  stm32f10x_dma.o ABSOLUTE
    ..\LIB\STM32F10x_StdPeriph_Driver\src\stm32f10x_exti.c 0x00000000   Number         0  stm32f10x_exti.o ABSOLUTE
    ..\LIB\STM32F10x_StdPeriph_Driver\src\stm32f10x_flash.c 0x00000000   Number         0  stm32f10x_flash.o ABSOLUTE
    ..\LIB\STM32F10x_StdPeriph_Driver\src\stm32f10x_fsmc.c 0x00000000   Number         0  stm32f10x_fsmc.o ABSOLUTE
    ..\LIB\STM32F10x_StdPeriph_Driver\src\stm32f10x_gpio.c 0x00000000   Number         0  stm32f10x_gpio.o ABSOLUTE
    ..\LIB\STM32F10x_StdPeriph_Driver\src\stm32f10x_i2c.c 0x00000000   Number         0  stm32f10x_i2c.o ABSOLUTE
    ..\LIB\STM32F10x_StdPeriph_Driver\src\stm32f10x_iwdg.c 0x00000000   Number         0  stm32f10x_iwdg.o ABSOLUTE
    ..\LIB\STM32F10x_StdPeriph_Driver\src\stm32f10x_pwr.c 0x00000000   Number         0  stm32f10x_pwr.o ABSOLUTE
    ..\LIB\STM32F10x_StdPeriph_Driver\src\stm32f10x_rcc.c 0x00000000   Number         0  stm32f10x_rcc.o ABSOLUTE
    ..\LIB\STM32F10x_StdPeriph_Driver\src\stm32f10x_rtc.c 0x00000000   Number         0  stm32f10x_rtc.o ABSOLUTE
    ..\LIB\STM32F10x_StdPeriph_Driver\src\stm32f10x_sdio.c 0x00000000   Number         0  stm32f10x_sdio.o ABSOLUTE
    ..\LIB\STM32F10x_StdPeriph_Driver\src\stm32f10x_spi.c 0x00000000   Number         0  stm32f10x_spi.o ABSOLUTE
    ..\LIB\STM32F10x_StdPeriph_Driver\src\stm32f10x_tim.c 0x00000000   Number         0  stm32f10x_tim.o ABSOLUTE
    ..\LIB\STM32F10x_StdPeriph_Driver\src\stm32f10x_usart.c 0x00000000   Number         0  stm32f10x_usart.o ABSOLUTE
    ..\LIB\STM32F10x_StdPeriph_Driver\src\stm32f10x_wwdg.c 0x00000000   Number         0  stm32f10x_wwdg.o ABSOLUTE
    ..\USER\src\DMA.C                        0x00000000   Number         0  dma.o ABSOLUTE
    ..\USER\src\KEY.C                        0x00000000   Number         0  key.o ABSOLUTE
    ..\USER\src\LED.C                        0x00000000   Number         0  led.o ABSOLUTE
    ..\USER\src\SCI.c                        0x00000000   Number         0  sci.o ABSOLUTE
    ..\USER\src\ZQWL-Timer.c                 0x00000000   Number         0  zqwl-timer.o ABSOLUTE
    ..\USER\src\delay.c                      0x00000000   Number         0  delay.o ABSOLUTE
    ..\USER\src\main.c                       0x00000000   Number         0  main.o ABSOLUTE
    ..\USER\src\rc522.c                      0x00000000   Number         0  rc522.o ABSOLUTE
    ..\USER\src\spi.c                        0x00000000   Number         0  spi.o ABSOLUTE
    ..\USER\src\stm32f107.c                  0x00000000   Number         0  stm32f107.o ABSOLUTE
    ..\\LIB\\CMSIS\\CM3\\CoreSupport\\core_cm3.c 0x00000000   Number         0  core_cm3.o ABSOLUTE
    dc.s                                     0x00000000   Number         0  dc.o ABSOLUTE
    RESET                                    0x08000000   Section      304  startup_stm32f10x_hd.o(RESET)
    !!!main                                  0x08000130   Section        8  __main.o(!!!main)
    !!!scatter                               0x08000138   Section       52  __scatter.o(!!!scatter)
    !!handler_copy                           0x0800016c   Section       26  __scatter_copy.o(!!handler_copy)
    !!handler_zi                             0x08000188   Section       28  __scatter_zi.o(!!handler_zi)
    .ARM.Collect$$libinit$$00000000          0x080001a4   Section        2  libinit.o(.ARM.Collect$$libinit$$00000000)
    .ARM.Collect$$libinit$$00000002          0x080001a6   Section        0  libinit2.o(.ARM.Collect$$libinit$$00000002)
    .ARM.Collect$$libinit$$00000004          0x080001a6   Section        0  libinit2.o(.ARM.Collect$$libinit$$00000004)
    .ARM.Collect$$libinit$$0000000A          0x080001a6   Section        0  libinit2.o(.ARM.Collect$$libinit$$0000000A)
    .ARM.Collect$$libinit$$0000000C          0x080001a6   Section        0  libinit2.o(.ARM.Collect$$libinit$$0000000C)
    .ARM.Collect$$libinit$$0000000E          0x080001a6   Section        0  libinit2.o(.ARM.Collect$$libinit$$0000000E)
    .ARM.Collect$$libinit$$00000011          0x080001a6   Section        0  libinit2.o(.ARM.Collect$$libinit$$00000011)
    .ARM.Collect$$libinit$$00000013          0x080001a6   Section        0  libinit2.o(.ARM.Collect$$libinit$$00000013)
    .ARM.Collect$$libinit$$00000015          0x080001a6   Section        0  libinit2.o(.ARM.Collect$$libinit$$00000015)
    .ARM.Collect$$libinit$$00000017          0x080001a6   Section        0  libinit2.o(.ARM.Collect$$libinit$$00000017)
    .ARM.Collect$$libinit$$00000019          0x080001a6   Section        0  libinit2.o(.ARM.Collect$$libinit$$00000019)
    .ARM.Collect$$libinit$$0000001B          0x080001a6   Section        0  libinit2.o(.ARM.Collect$$libinit$$0000001B)
    .ARM.Collect$$libinit$$0000001D          0x080001a6   Section        0  libinit2.o(.ARM.Collect$$libinit$$0000001D)
    .ARM.Collect$$libinit$$0000001F          0x080001a6   Section        0  libinit2.o(.ARM.Collect$$libinit$$0000001F)
    .ARM.Collect$$libinit$$00000021          0x080001a6   Section        0  libinit2.o(.ARM.Collect$$libinit$$00000021)
    .ARM.Collect$$libinit$$00000023          0x080001a6   Section        0  libinit2.o(.ARM.Collect$$libinit$$00000023)
    .ARM.Collect$$libinit$$00000025          0x080001a6   Section        0  libinit2.o(.ARM.Collect$$libinit$$00000025)
    .ARM.Collect$$libinit$$0000002C          0x080001a6   Section        0  libinit2.o(.ARM.Collect$$libinit$$0000002C)
    .ARM.Collect$$libinit$$0000002E          0x080001a6   Section        0  libinit2.o(.ARM.Collect$$libinit$$0000002E)
    .ARM.Collect$$libinit$$00000030          0x080001a6   Section        0  libinit2.o(.ARM.Collect$$libinit$$00000030)
    .ARM.Collect$$libinit$$00000032          0x080001a6   Section        0  libinit2.o(.ARM.Collect$$libinit$$00000032)
    .ARM.Collect$$libinit$$00000033          0x080001a6   Section        2  libinit2.o(.ARM.Collect$$libinit$$00000033)
    .ARM.Collect$$libshutdown$$00000000      0x080001a8   Section        2  libshutdown.o(.ARM.Collect$$libshutdown$$00000000)
    .ARM.Collect$$libshutdown$$00000002      0x080001aa   Section        0  libshutdown2.o(.ARM.Collect$$libshutdown$$00000002)
    .ARM.Collect$$libshutdown$$00000004      0x080001aa   Section        0  libshutdown2.o(.ARM.Collect$$libshutdown$$00000004)
    .ARM.Collect$$libshutdown$$00000007      0x080001aa   Section        0  libshutdown2.o(.ARM.Collect$$libshutdown$$00000007)
    .ARM.Collect$$libshutdown$$0000000A      0x080001aa   Section        0  libshutdown2.o(.ARM.Collect$$libshutdown$$0000000A)
    .ARM.Collect$$libshutdown$$0000000C      0x080001aa   Section        0  libshutdown2.o(.ARM.Collect$$libshutdown$$0000000C)
    .ARM.Collect$$libshutdown$$0000000F      0x080001aa   Section        0  libshutdown2.o(.ARM.Collect$$libshutdown$$0000000F)
    .ARM.Collect$$libshutdown$$00000010      0x080001aa   Section        2  libshutdown2.o(.ARM.Collect$$libshutdown$$00000010)
    .ARM.Collect$$rtentry$$00000000          0x080001ac   Section        0  __rtentry.o(.ARM.Collect$$rtentry$$00000000)
    .ARM.Collect$$rtentry$$00000002          0x080001ac   Section        0  __rtentry2.o(.ARM.Collect$$rtentry$$00000002)
    .ARM.Collect$$rtentry$$00000004          0x080001ac   Section        6  __rtentry4.o(.ARM.Collect$$rtentry$$00000004)
    .ARM.Collect$$rtentry$$00000009          0x080001b2   Section        0  __rtentry2.o(.ARM.Collect$$rtentry$$00000009)
    .ARM.Collect$$rtentry$$0000000A          0x080001b2   Section        4  __rtentry2.o(.ARM.Collect$$rtentry$$0000000A)
    .ARM.Collect$$rtentry$$0000000C          0x080001b6   Section        0  __rtentry2.o(.ARM.Collect$$rtentry$$0000000C)
    .ARM.Collect$$rtentry$$0000000D          0x080001b6   Section        8  __rtentry2.o(.ARM.Collect$$rtentry$$0000000D)
    .ARM.Collect$$rtexit$$00000000           0x080001be   Section        2  rtexit.o(.ARM.Collect$$rtexit$$00000000)
    .ARM.Collect$$rtexit$$00000002           0x080001c0   Section        0  rtexit2.o(.ARM.Collect$$rtexit$$00000002)
    .ARM.Collect$$rtexit$$00000003           0x080001c0   Section        4  rtexit2.o(.ARM.Collect$$rtexit$$00000003)
    .ARM.Collect$$rtexit$$00000004           0x080001c4   Section        6  rtexit2.o(.ARM.Collect$$rtexit$$00000004)
    .text                                    0x080001cc   Section       64  startup_stm32f10x_hd.o(.text)
    .text                                    0x0800020c   Section        0  heapauxi.o(.text)
    .text                                    0x08000212   Section       74  sys_stackheap_outer.o(.text)
    .text                                    0x0800025c   Section        0  exit.o(.text)
    .text                                    0x08000270   Section        8  libspace.o(.text)
    .text                                    0x08000278   Section        0  sys_exit.o(.text)
    .text                                    0x08000284   Section        2  use_no_semi.o(.text)
    .text                                    0x08000286   Section        0  indicate_semi.o(.text)
    i.CalulateCRC                            0x08000286   Section        0  rc522.o(i.CalulateCRC)
    CalulateCRC                              0x08000287   Thumb Code   108  rc522.o(i.CalulateCRC)
    i.ClearBitMask                           0x080002f2   Section        0  rc522.o(i.ClearBitMask)
    ClearBitMask                             0x080002f3   Thumb Code    28  rc522.o(i.ClearBitMask)
    i.DMA_Cmd                                0x0800030e   Section        0  stm32f10x_dma.o(i.DMA_Cmd)
    i.DMA_DeInit                             0x08000328   Section        0  stm32f10x_dma.o(i.DMA_DeInit)
    i.DMA_GetCurrDataCounter                 0x08000474   Section        0  stm32f10x_dma.o(i.DMA_GetCurrDataCounter)
    i.DMA_ITConfig                           0x0800047c   Section        0  stm32f10x_dma.o(i.DMA_ITConfig)
    i.DMA_Init                               0x0800048e   Section        0  stm32f10x_dma.o(i.DMA_Init)
    i.DMA_SetCurrDataCounter                 0x080004ca   Section        0  stm32f10x_dma.o(i.DMA_SetCurrDataCounter)
    i.GPIO_Init                              0x080004ce   Section        0  stm32f10x_gpio.o(i.GPIO_Init)
    i.GPIO_PinRemapConfig                    0x080005e4   Section        0  stm32f10x_gpio.o(i.GPIO_PinRemapConfig)
    i.GPIO_ResetBits                         0x08000674   Section        0  stm32f10x_gpio.o(i.GPIO_ResetBits)
    i.GPIO_SetBits                           0x08000678   Section        0  stm32f10x_gpio.o(i.GPIO_SetBits)
    i.LED_Configuration                      0x0800067c   Section        0  led.o(i.LED_Configuration)
    i.M500PcdConfigISOType                   0x080006d0   Section        0  rc522.o(i.M500PcdConfigISOType)
    i.NVIC_Configuration                     0x08000756   Section        0  stm32f107.o(i.NVIC_Configuration)
    i.NVIC_Init                              0x080007a4   Section        0  misc.o(i.NVIC_Init)
    i.NVIC_PriorityGroupConfig               0x08000814   Section        0  misc.o(i.NVIC_PriorityGroupConfig)
    i.NVIC_SetVectorTable                    0x08000828   Section        0  misc.o(i.NVIC_SetVectorTable)
    i.One_LED_OFF                            0x0800083c   Section        0  led.o(i.One_LED_OFF)
    i.One_LED_ON                             0x0800088c   Section        0  led.o(i.One_LED_ON)
    i.Parse_Data                             0x08000904   Section        0  rc522.o(i.Parse_Data)
    i.PcdAntennaOff                          0x08000a44   Section        0  rc522.o(i.PcdAntennaOff)
    i.PcdAntennaOn                           0x08000a50   Section        0  rc522.o(i.PcdAntennaOn)
    i.PcdAnticoll                            0x08000a6a   Section        0  rc522.o(i.PcdAnticoll)
    i.PcdAuthState                           0x08000adc   Section        0  rc522.o(i.PcdAuthState)
    i.PcdComMF522                            0x08000b58   Section        0  rc522.o(i.PcdComMF522)
    PcdComMF522                              0x08000b59   Thumb Code   410  rc522.o(i.PcdComMF522)
    i.PcdHalt                                0x08000cf8   Section        0  rc522.o(i.PcdHalt)
    i.PcdRead                                0x08000d2c   Section        0  rc522.o(i.PcdRead)
    i.PcdRequest                             0x08000d80   Section        0  rc522.o(i.PcdRequest)
    i.PcdReset                               0x08000dd4   Section        0  rc522.o(i.PcdReset)
    i.PcdSelect                              0x08000e24   Section        0  rc522.o(i.PcdSelect)
    i.PcdWrite                               0x08000e96   Section        0  rc522.o(i.PcdWrite)
    i.RC522_Reset                            0x08000f28   Section        0  rc522.o(i.RC522_Reset)
    i.RCC_AHBPeriphClockCmd                  0x08000f70   Section        0  stm32f10x_rcc.o(i.RCC_AHBPeriphClockCmd)
    i.RCC_APB1PeriphClockCmd                 0x08000f90   Section        0  stm32f10x_rcc.o(i.RCC_APB1PeriphClockCmd)
    i.RCC_APB2PeriphClockCmd                 0x08000fb0   Section        0  stm32f10x_rcc.o(i.RCC_APB2PeriphClockCmd)
    i.RCC_GetClocksFreq                      0x08000fd0   Section        0  stm32f10x_rcc.o(i.RCC_GetClocksFreq)
    i.RS232_DMA_Init                         0x08001160   Section        0  dma.o(i.RS232_DMA_Init)
    i.RS232_Send_Data                        0x08001218   Section        0  sci.o(i.RS232_Send_Data)
    i.ReadRawRC                              0x08001244   Section        0  rc522.o(i.ReadRawRC)
    ReadRawRC                                0x08001245   Thumb Code    54  rc522.o(i.ReadRawRC)
    i.Read_Bank                              0x08001280   Section        0  rc522.o(i.Read_Bank)
    i.Read_ID                                0x0800131c   Section        0  rc522.o(i.Read_ID)
    i.SPI_Cmd                                0x08001344   Section        0  stm32f10x_spi.o(i.SPI_Cmd)
    i.SPI_I2S_GetFlagStatus                  0x0800135c   Section        0  stm32f10x_spi.o(i.SPI_I2S_GetFlagStatus)
    i.SPI_I2S_ReceiveData                    0x0800136e   Section        0  stm32f10x_spi.o(i.SPI_I2S_ReceiveData)
    i.SPI_I2S_SendData                       0x08001374   Section        0  stm32f10x_spi.o(i.SPI_I2S_SendData)
    i.SPI_Init                               0x08001378   Section        0  stm32f10x_spi.o(i.SPI_Init)
    i.SPI_ReadWriteByte                      0x080013b4   Section        0  spi.o(i.SPI_ReadWriteByte)
    i.SetBitMask                             0x08001408   Section        0  rc522.o(i.SetBitMask)
    SetBitMask                               0x08001409   Thumb Code    28  rc522.o(i.SetBitMask)
    i.SetSysClock                            0x08001424   Section        0  system_stm32f10x_1.o(i.SetSysClock)
    SetSysClock                              0x08001425   Thumb Code     8  system_stm32f10x_1.o(i.SetSysClock)
    i.SetSysClockTo72                        0x0800142c   Section        0  system_stm32f10x_1.o(i.SetSysClockTo72)
    SetSysClockTo72                          0x0800142d   Thumb Code   264  system_stm32f10x_1.o(i.SetSysClockTo72)
    i.SysTick_CLKSourceConfig                0x08001544   Section        0  misc.o(i.SysTick_CLKSourceConfig)
    i.SystemInit                             0x0800156c   Section        0  system_stm32f10x_1.o(i.SystemInit)
    i.TIM2_IRQHandler                        0x080015d8   Section        0  zqwl-timer.o(i.TIM2_IRQHandler)
    i.TIM_ClearITPendingBit                  0x08001640   Section        0  stm32f10x_tim.o(i.TIM_ClearITPendingBit)
    i.TIM_GetITStatus                        0x08001646   Section        0  stm32f10x_tim.o(i.TIM_GetITStatus)
    i.USART2_IRQHandler                      0x08001668   Section        0  sci.o(i.USART2_IRQHandler)
    i.USART_232_Configuration                0x080016e8   Section        0  sci.o(i.USART_232_Configuration)
    i.USART_ClearITPendingBit                0x080017a8   Section        0  stm32f10x_usart.o(i.USART_ClearITPendingBit)
    i.USART_Cmd                              0x080017c6   Section        0  stm32f10x_usart.o(i.USART_Cmd)
    i.USART_DMACmd                           0x080017de   Section        0  stm32f10x_usart.o(i.USART_DMACmd)
    i.USART_GetITStatus                      0x080017f0   Section        0  stm32f10x_usart.o(i.USART_GetITStatus)
    i.USART_ITConfig                         0x08001844   Section        0  stm32f10x_usart.o(i.USART_ITConfig)
    i.USART_Init                             0x08001890   Section        0  stm32f10x_usart.o(i.USART_Init)
    i.WIRELESS_SPI_Init                      0x08001968   Section        0  spi.o(i.WIRELESS_SPI_Init)
    i.WriteRawRC                             0x08001a24   Section        0  rc522.o(i.WriteRawRC)
    WriteRawRC                               0x08001a25   Thumb Code    46  rc522.o(i.WriteRawRC)
    i.Write_Bank                             0x08001a58   Section        0  rc522.o(i.Write_Bank)
    i.delay_init                             0x08001af0   Section        0  delay.o(i.delay_init)
    i.delay_ns                               0x08001b34   Section        0  rc522.o(i.delay_ns)
    i.main                                   0x08001b40   Section        0  main.o(i.main)
    .data                                    0x20000000   Section        4  delay.o(.data)
    fac_us                                   0x20000000   Data           1  delay.o(.data)
    fac_ms                                   0x20000002   Data           2  delay.o(.data)
    .data                                    0x20000004   Section        5  dma.o(.data)
    .data                                    0x2000000c   Section       24  rc522.o(.data)
    md                                       0x20000020   Data           4  rc522.o(.data)
    .data                                    0x20000024   Section       16  sci.o(.data)
    .data                                    0x20000034   Section        5  zqwl-timer.o(.data)
    .data                                    0x2000003c   Section       20  system_stm32f10x_1.o(.data)
    .data                                    0x20000050   Section       20  stm32f10x_rcc.o(.data)
    APBAHBPrescTable                         0x20000050   Data          16  stm32f10x_rcc.o(.data)
    ADCPrescTable                            0x20000060   Data           4  stm32f10x_rcc.o(.data)
    .bss                                     0x20000064   Section       51  rc522.o(.bss)
    .bss                                     0x20000097   Section     1024  sci.o(.bss)
    .bss                                     0x20000498   Section       96  libspace.o(.bss)
    HEAP                                     0x200004f8   Section      512  startup_stm32f10x_hd.o(HEAP)
    Heap_Mem                                 0x200004f8   Data         512  startup_stm32f10x_hd.o(HEAP)
    STACK                                    0x200006f8   Section     1024  startup_stm32f10x_hd.o(STACK)
    Stack_Mem                                0x200006f8   Data        1024  startup_stm32f10x_hd.o(STACK)
    __initial_sp                             0x20000af8   Data           0  startup_stm32f10x_hd.o(STACK)

    Global Symbols

    Symbol Name                              Value     Ov Type        Size  Object(Section)

    BuildAttributes$$THM_ISAv4$P$D$K$B$S$PE$A:L22UL41UL21$X:L11$S22US41US21$IEEE1$IW$USESV6$~STKCKD$USESV7$~SHL$OSPACE$ROPI$EBA8$UX$STANDARDLIB$REQ8$PRES8$EABIv2 0x00000000   Number         0  anon$$obj.o ABSOLUTE
    __ARM_use_no_argv                        0x00000000   Number         0  main.o ABSOLUTE
    __ARM_exceptions_init                     - Undefined Weak Reference
    __alloca_initialize                       - Undefined Weak Reference
    __arm_preinit_                            - Undefined Weak Reference
    __cpp_initialize__aeabi_                  - Undefined Weak Reference
    __cxa_finalize                            - Undefined Weak Reference
    __rt_locale                               - Undefined Weak Reference
    __sigvec_lookup                           - Undefined Weak Reference
    _atexit_init                              - Undefined Weak Reference
    _call_atexit_fns                          - Undefined Weak Reference
    _clock_init                               - Undefined Weak Reference
    _fp_trap_init                             - Undefined Weak Reference
    _fp_trap_shutdown                         - Undefined Weak Reference
    _get_lc_collate                           - Undefined Weak Reference
    _get_lc_ctype                             - Undefined Weak Reference
    _get_lc_monetary                          - Undefined Weak Reference
    _get_lc_numeric                           - Undefined Weak Reference
    _get_lc_time                              - Undefined Weak Reference
    _getenv_init                              - Undefined Weak Reference
    _handle_redirection                       - Undefined Weak Reference
    _init_alloc                               - Undefined Weak Reference
    _init_user_alloc                          - Undefined Weak Reference
    _initio                                   - Undefined Weak Reference
    _rand_init                                - Undefined Weak Reference
    _signal_finish                            - Undefined Weak Reference
    _signal_init                              - Undefined Weak Reference
    _terminate_alloc                          - Undefined Weak Reference
    _terminate_user_alloc                     - Undefined Weak Reference
    _terminateio                              - Undefined Weak Reference
    __Vectors_Size                           0x00000130   Number         0  startup_stm32f10x_hd.o ABSOLUTE
    __Vectors                                0x08000000   Data           4  startup_stm32f10x_hd.o(RESET)
    __Vectors_End                            0x08000130   Data           0  startup_stm32f10x_hd.o(RESET)
    __main                                   0x08000131   Thumb Code     8  __main.o(!!!main)
    __scatterload                            0x08000139   Thumb Code     0  __scatter.o(!!!scatter)
    __scatterload_rt2                        0x08000139   Thumb Code    44  __scatter.o(!!!scatter)
    __scatterload_rt2_thumb_only             0x08000139   Thumb Code     0  __scatter.o(!!!scatter)
    __scatterload_null                       0x08000147   Thumb Code     0  __scatter.o(!!!scatter)
    __scatterload_copy                       0x0800016d   Thumb Code    26  __scatter_copy.o(!!handler_copy)
    __scatterload_zeroinit                   0x08000189   Thumb Code    28  __scatter_zi.o(!!handler_zi)
    __rt_lib_init                            0x080001a5   Thumb Code     0  libinit.o(.ARM.Collect$$libinit$$00000000)
    __rt_lib_init_alloca_1                   0x080001a7   Thumb Code     0  libinit2.o(.ARM.Collect$$libinit$$0000002E)
    __rt_lib_init_argv_1                     0x080001a7   Thumb Code     0  libinit2.o(.ARM.Collect$$libinit$$0000002C)
    __rt_lib_init_atexit_1                   0x080001a7   Thumb Code     0  libinit2.o(.ARM.Collect$$libinit$$0000001B)
    __rt_lib_init_clock_1                    0x080001a7   Thumb Code     0  libinit2.o(.ARM.Collect$$libinit$$00000021)
    __rt_lib_init_cpp_1                      0x080001a7   Thumb Code     0  libinit2.o(.ARM.Collect$$libinit$$00000032)
    __rt_lib_init_exceptions_1               0x080001a7   Thumb Code     0  libinit2.o(.ARM.Collect$$libinit$$00000030)
    __rt_lib_init_fp_1                       0x080001a7   Thumb Code     0  libinit2.o(.ARM.Collect$$libinit$$00000002)
    __rt_lib_init_fp_trap_1                  0x080001a7   Thumb Code     0  libinit2.o(.ARM.Collect$$libinit$$0000001F)
    __rt_lib_init_getenv_1                   0x080001a7   Thumb Code     0  libinit2.o(.ARM.Collect$$libinit$$00000023)
    __rt_lib_init_heap_1                     0x080001a7   Thumb Code     0  libinit2.o(.ARM.Collect$$libinit$$0000000A)
    __rt_lib_init_lc_collate_1               0x080001a7   Thumb Code     0  libinit2.o(.ARM.Collect$$libinit$$00000011)
    __rt_lib_init_lc_ctype_1                 0x080001a7   Thumb Code     0  libinit2.o(.ARM.Collect$$libinit$$00000013)
    __rt_lib_init_lc_monetary_1              0x080001a7   Thumb Code     0  libinit2.o(.ARM.Collect$$libinit$$00000015)
    __rt_lib_init_lc_numeric_1               0x080001a7   Thumb Code     0  libinit2.o(.ARM.Collect$$libinit$$00000017)
    __rt_lib_init_lc_time_1                  0x080001a7   Thumb Code     0  libinit2.o(.ARM.Collect$$libinit$$00000019)
    __rt_lib_init_preinit_1                  0x080001a7   Thumb Code     0  libinit2.o(.ARM.Collect$$libinit$$00000004)
    __rt_lib_init_rand_1                     0x080001a7   Thumb Code     0  libinit2.o(.ARM.Collect$$libinit$$0000000E)
    __rt_lib_init_return                     0x080001a7   Thumb Code     0  libinit2.o(.ARM.Collect$$libinit$$00000033)
    __rt_lib_init_signal_1                   0x080001a7   Thumb Code     0  libinit2.o(.ARM.Collect$$libinit$$0000001D)
    __rt_lib_init_stdio_1                    0x080001a7   Thumb Code     0  libinit2.o(.ARM.Collect$$libinit$$00000025)
    __rt_lib_init_user_alloc_1               0x080001a7   Thumb Code     0  libinit2.o(.ARM.Collect$$libinit$$0000000C)
    __rt_lib_shutdown                        0x080001a9   Thumb Code     0  libshutdown.o(.ARM.Collect$$libshutdown$$00000000)
    __rt_lib_shutdown_cpp_1                  0x080001ab   Thumb Code     0  libshutdown2.o(.ARM.Collect$$libshutdown$$00000002)
    __rt_lib_shutdown_fp_trap_1              0x080001ab   Thumb Code     0  libshutdown2.o(.ARM.Collect$$libshutdown$$00000007)
    __rt_lib_shutdown_heap_1                 0x080001ab   Thumb Code     0  libshutdown2.o(.ARM.Collect$$libshutdown$$0000000F)
    __rt_lib_shutdown_return                 0x080001ab   Thumb Code     0  libshutdown2.o(.ARM.Collect$$libshutdown$$00000010)
    __rt_lib_shutdown_signal_1               0x080001ab   Thumb Code     0  libshutdown2.o(.ARM.Collect$$libshutdown$$0000000A)
    __rt_lib_shutdown_stdio_1                0x080001ab   Thumb Code     0  libshutdown2.o(.ARM.Collect$$libshutdown$$00000004)
    __rt_lib_shutdown_user_alloc_1           0x080001ab   Thumb Code     0  libshutdown2.o(.ARM.Collect$$libshutdown$$0000000C)
    __rt_entry                               0x080001ad   Thumb Code     0  __rtentry.o(.ARM.Collect$$rtentry$$00000000)
    __rt_entry_presh_1                       0x080001ad   Thumb Code     0  __rtentry2.o(.ARM.Collect$$rtentry$$00000002)
    __rt_entry_sh                            0x080001ad   Thumb Code     0  __rtentry4.o(.ARM.Collect$$rtentry$$00000004)
    __rt_entry_li                            0x080001b3   Thumb Code     0  __rtentry2.o(.ARM.Collect$$rtentry$$0000000A)
    __rt_entry_postsh_1                      0x080001b3   Thumb Code     0  __rtentry2.o(.ARM.Collect$$rtentry$$00000009)
    __rt_entry_main                          0x080001b7   Thumb Code     0  __rtentry2.o(.ARM.Collect$$rtentry$$0000000D)
    __rt_entry_postli_1                      0x080001b7   Thumb Code     0  __rtentry2.o(.ARM.Collect$$rtentry$$0000000C)
    __rt_exit                                0x080001bf   Thumb Code     0  rtexit.o(.ARM.Collect$$rtexit$$00000000)
    __rt_exit_ls                             0x080001c1   Thumb Code     0  rtexit2.o(.ARM.Collect$$rtexit$$00000003)
    __rt_exit_prels_1                        0x080001c1   Thumb Code     0  rtexit2.o(.ARM.Collect$$rtexit$$00000002)
    __rt_exit_exit                           0x080001c5   Thumb Code     0  rtexit2.o(.ARM.Collect$$rtexit$$00000004)
    Reset_Handler                            0x080001cd   Thumb Code     8  startup_stm32f10x_hd.o(.text)
    NMI_Handler                              0x080001d5   Thumb Code     2  startup_stm32f10x_hd.o(.text)
    HardFault_Handler                        0x080001d7   Thumb Code     2  startup_stm32f10x_hd.o(.text)
    MemManage_Handler                        0x080001d9   Thumb Code     2  startup_stm32f10x_hd.o(.text)
    BusFault_Handler                         0x080001db   Thumb Code     2  startup_stm32f10x_hd.o(.text)
    UsageFault_Handler                       0x080001dd   Thumb Code     2  startup_stm32f10x_hd.o(.text)
    SVC_Handler                              0x080001df   Thumb Code     2  startup_stm32f10x_hd.o(.text)
    DebugMon_Handler                         0x080001e1   Thumb Code     2  startup_stm32f10x_hd.o(.text)
    PendSV_Handler                           0x080001e3   Thumb Code     2  startup_stm32f10x_hd.o(.text)
    SysTick_Handler                          0x080001e5   Thumb Code     2  startup_stm32f10x_hd.o(.text)
    ADC1_2_IRQHandler                        0x080001e7   Thumb Code     0  startup_stm32f10x_hd.o(.text)
    ADC3_IRQHandler                          0x080001e7   Thumb Code     0  startup_stm32f10x_hd.o(.text)
    CAN1_RX1_IRQHandler                      0x080001e7   Thumb Code     0  startup_stm32f10x_hd.o(.text)
    CAN1_SCE_IRQHandler                      0x080001e7   Thumb Code     0  startup_stm32f10x_hd.o(.text)
    DMA1_Channel1_IRQHandler                 0x080001e7   Thumb Code     0  startup_stm32f10x_hd.o(.text)
    DMA1_Channel2_IRQHandler                 0x080001e7   Thumb Code     0  startup_stm32f10x_hd.o(.text)
    DMA1_Channel3_IRQHandler                 0x080001e7   Thumb Code     0  startup_stm32f10x_hd.o(.text)
    DMA1_Channel4_IRQHandler                 0x080001e7   Thumb Code     0  startup_stm32f10x_hd.o(.text)
    DMA1_Channel5_IRQHandler                 0x080001e7   Thumb Code     0  startup_stm32f10x_hd.o(.text)
    DMA1_Channel6_IRQHandler                 0x080001e7   Thumb Code     0  startup_stm32f10x_hd.o(.text)
    DMA1_Channel7_IRQHandler                 0x080001e7   Thumb Code     0  startup_stm32f10x_hd.o(.text)
    DMA2_Channel1_IRQHandler                 0x080001e7   Thumb Code     0  startup_stm32f10x_hd.o(.text)
    DMA2_Channel2_IRQHandler                 0x080001e7   Thumb Code     0  startup_stm32f10x_hd.o(.text)
    DMA2_Channel3_IRQHandler                 0x080001e7   Thumb Code     0  startup_stm32f10x_hd.o(.text)
    DMA2_Channel4_5_IRQHandler               0x080001e7   Thumb Code     0  startup_stm32f10x_hd.o(.text)
    EXTI0_IRQHandler                         0x080001e7   Thumb Code     0  startup_stm32f10x_hd.o(.text)
    EXTI15_10_IRQHandler                     0x080001e7   Thumb Code     0  startup_stm32f10x_hd.o(.text)
    EXTI1_IRQHandler                         0x080001e7   Thumb Code     0  startup_stm32f10x_hd.o(.text)
    EXTI2_IRQHandler                         0x080001e7   Thumb Code     0  startup_stm32f10x_hd.o(.text)
    EXTI3_IRQHandler                         0x080001e7   Thumb Code     0  startup_stm32f10x_hd.o(.text)
    EXTI4_IRQHandler                         0x080001e7   Thumb Code     0  startup_stm32f10x_hd.o(.text)
    EXTI9_5_IRQHandler                       0x080001e7   Thumb Code     0  startup_stm32f10x_hd.o(.text)
    FLASH_IRQHandler                         0x080001e7   Thumb Code     0  startup_stm32f10x_hd.o(.text)
    FSMC_IRQHandler                          0x080001e7   Thumb Code     0  startup_stm32f10x_hd.o(.text)
    I2C1_ER_IRQHandler                       0x080001e7   Thumb Code     0  startup_stm32f10x_hd.o(.text)
    I2C1_EV_IRQHandler                       0x080001e7   Thumb Code     0  startup_stm32f10x_hd.o(.text)
    I2C2_ER_IRQHandler                       0x080001e7   Thumb Code     0  startup_stm32f10x_hd.o(.text)
    I2C2_EV_IRQHandler                       0x080001e7   Thumb Code     0  startup_stm32f10x_hd.o(.text)
    PVD_IRQHandler                           0x080001e7   Thumb Code     0  startup_stm32f10x_hd.o(.text)
    RCC_IRQHandler                           0x080001e7   Thumb Code     0  startup_stm32f10x_hd.o(.text)
    RTCAlarm_IRQHandler                      0x080001e7   Thumb Code     0  startup_stm32f10x_hd.o(.text)
    RTC_IRQHandler                           0x080001e7   Thumb Code     0  startup_stm32f10x_hd.o(.text)
    SDIO_IRQHandler                          0x080001e7   Thumb Code     0  startup_stm32f10x_hd.o(.text)
    SPI1_IRQHandler                          0x080001e7   Thumb Code     0  startup_stm32f10x_hd.o(.text)
    SPI2_IRQHandler                          0x080001e7   Thumb Code     0  startup_stm32f10x_hd.o(.text)
    SPI3_IRQHandler                          0x080001e7   Thumb Code     0  startup_stm32f10x_hd.o(.text)
    TAMPER_IRQHandler                        0x080001e7   Thumb Code     0  startup_stm32f10x_hd.o(.text)
    TIM1_BRK_IRQHandler                      0x080001e7   Thumb Code     0  startup_stm32f10x_hd.o(.text)
    TIM1_CC_IRQHandler                       0x080001e7   Thumb Code     0  startup_stm32f10x_hd.o(.text)
    TIM1_TRG_COM_IRQHandler                  0x080001e7   Thumb Code     0  startup_stm32f10x_hd.o(.text)
    TIM1_UP_IRQHandler                       0x080001e7   Thumb Code     0  startup_stm32f10x_hd.o(.text)
    TIM3_IRQHandler                          0x080001e7   Thumb Code     0  startup_stm32f10x_hd.o(.text)
    TIM4_IRQHandler                          0x080001e7   Thumb Code     0  startup_stm32f10x_hd.o(.text)
    TIM5_IRQHandler                          0x080001e7   Thumb Code     0  startup_stm32f10x_hd.o(.text)
    TIM6_IRQHandler                          0x080001e7   Thumb Code     0  startup_stm32f10x_hd.o(.text)
    TIM7_IRQHandler                          0x080001e7   Thumb Code     0  startup_stm32f10x_hd.o(.text)
    TIM8_BRK_IRQHandler                      0x080001e7   Thumb Code     0  startup_stm32f10x_hd.o(.text)
    TIM8_CC_IRQHandler                       0x080001e7   Thumb Code     0  startup_stm32f10x_hd.o(.text)
    TIM8_TRG_COM_IRQHandler                  0x080001e7   Thumb Code     0  startup_stm32f10x_hd.o(.text)
    TIM8_UP_IRQHandler                       0x080001e7   Thumb Code     0  startup_stm32f10x_hd.o(.text)
    UART4_IRQHandler                         0x080001e7   Thumb Code     0  startup_stm32f10x_hd.o(.text)
    UART5_IRQHandler                         0x080001e7   Thumb Code     0  startup_stm32f10x_hd.o(.text)
    USART1_IRQHandler                        0x080001e7   Thumb Code     0  startup_stm32f10x_hd.o(.text)
    USART3_IRQHandler                        0x080001e7   Thumb Code     0  startup_stm32f10x_hd.o(.text)
    USBWakeUp_IRQHandler                     0x080001e7   Thumb Code     0  startup_stm32f10x_hd.o(.text)
    USB_HP_CAN1_TX_IRQHandler                0x080001e7   Thumb Code     0  startup_stm32f10x_hd.o(.text)
    USB_LP_CAN1_RX0_IRQHandler               0x080001e7   Thumb Code     0  startup_stm32f10x_hd.o(.text)
    WWDG_IRQHandler                          0x080001e7   Thumb Code     0  startup_stm32f10x_hd.o(.text)
    __user_initial_stackheap                 0x080001e9   Thumb Code     0  startup_stm32f10x_hd.o(.text)
    __use_two_region_memory                  0x0800020d   Thumb Code     2  heapauxi.o(.text)
    __rt_heap_escrow$2region                 0x0800020f   Thumb Code     2  heapauxi.o(.text)
    __rt_heap_expand$2region                 0x08000211   Thumb Code     2  heapauxi.o(.text)
    __user_setup_stackheap                   0x08000213   Thumb Code    74  sys_stackheap_outer.o(.text)
    exit                                     0x0800025d   Thumb Code    18  exit.o(.text)
    __user_libspace                          0x08000271   Thumb Code     8  libspace.o(.text)
    __user_perproc_libspace                  0x08000271   Thumb Code     0  libspace.o(.text)
    __user_perthread_libspace                0x08000271   Thumb Code     0  libspace.o(.text)
    _sys_exit                                0x08000279   Thumb Code     8  sys_exit.o(.text)
    __I$use$semihosting                      0x08000285   Thumb Code     0  use_no_semi.o(.text)
    __use_no_semihosting_swi                 0x08000285   Thumb Code     2  use_no_semi.o(.text)
    __semihosting_library_function           0x08000287   Thumb Code     0  indicate_semi.o(.text)
    DMA_Cmd                                  0x0800030f   Thumb Code    24  stm32f10x_dma.o(i.DMA_Cmd)
    DMA_DeInit                               0x08000329   Thumb Code   324  stm32f10x_dma.o(i.DMA_DeInit)
    DMA_GetCurrDataCounter                   0x08000475   Thumb Code     8  stm32f10x_dma.o(i.DMA_GetCurrDataCounter)
    DMA_ITConfig                             0x0800047d   Thumb Code    18  stm32f10x_dma.o(i.DMA_ITConfig)
    DMA_Init                                 0x0800048f   Thumb Code    60  stm32f10x_dma.o(i.DMA_Init)
    DMA_SetCurrDataCounter                   0x080004cb   Thumb Code     4  stm32f10x_dma.o(i.DMA_SetCurrDataCounter)
    GPIO_Init                                0x080004cf   Thumb Code   278  stm32f10x_gpio.o(i.GPIO_Init)
    GPIO_PinRemapConfig                      0x080005e5   Thumb Code   138  stm32f10x_gpio.o(i.GPIO_PinRemapConfig)
    GPIO_ResetBits                           0x08000675   Thumb Code     4  stm32f10x_gpio.o(i.GPIO_ResetBits)
    GPIO_SetBits                             0x08000679   Thumb Code     4  stm32f10x_gpio.o(i.GPIO_SetBits)
    LED_Configuration                        0x0800067d   Thumb Code    80  led.o(i.LED_Configuration)
    M500PcdConfigISOType                     0x080006d1   Thumb Code   134  rc522.o(i.M500PcdConfigISOType)
    NVIC_Configuration                       0x08000757   Thumb Code    76  stm32f107.o(i.NVIC_Configuration)
    NVIC_Init                                0x080007a5   Thumb Code   100  misc.o(i.NVIC_Init)
    NVIC_PriorityGroupConfig                 0x08000815   Thumb Code    10  misc.o(i.NVIC_PriorityGroupConfig)
    NVIC_SetVectorTable                      0x08000829   Thumb Code    12  misc.o(i.NVIC_SetVectorTable)
    One_LED_OFF                              0x0800083d   Thumb Code    76  led.o(i.One_LED_OFF)
    One_LED_ON                               0x0800088d   Thumb Code   116  led.o(i.One_LED_ON)
    Parse_Data                               0x08000905   Thumb Code   300  rc522.o(i.Parse_Data)
    PcdAntennaOff                            0x08000a45   Thumb Code    12  rc522.o(i.PcdAntennaOff)
    PcdAntennaOn                             0x08000a51   Thumb Code    26  rc522.o(i.PcdAntennaOn)
    PcdAnticoll                              0x08000a6b   Thumb Code   112  rc522.o(i.PcdAnticoll)
    PcdAuthState                             0x08000add   Thumb Code   120  rc522.o(i.PcdAuthState)
    PcdHalt                                  0x08000cf9   Thumb Code    52  rc522.o(i.PcdHalt)
    PcdRead                                  0x08000d2d   Thumb Code    84  rc522.o(i.PcdRead)
    PcdRequest                               0x08000d81   Thumb Code    84  rc522.o(i.PcdRequest)
    PcdReset                                 0x08000dd5   Thumb Code    80  rc522.o(i.PcdReset)
    PcdSelect                                0x08000e25   Thumb Code   114  rc522.o(i.PcdSelect)
    PcdWrite                                 0x08000e97   Thumb Code   146  rc522.o(i.PcdWrite)
    RC522_Reset                              0x08000f29   Thumb Code    70  rc522.o(i.RC522_Reset)
    RCC_AHBPeriphClockCmd                    0x08000f71   Thumb Code    26  stm32f10x_rcc.o(i.RCC_AHBPeriphClockCmd)
    RCC_APB1PeriphClockCmd                   0x08000f91   Thumb Code    26  stm32f10x_rcc.o(i.RCC_APB1PeriphClockCmd)
    RCC_APB2PeriphClockCmd                   0x08000fb1   Thumb Code    26  stm32f10x_rcc.o(i.RCC_APB2PeriphClockCmd)
    RCC_GetClocksFreq                        0x08000fd1   Thumb Code   374  stm32f10x_rcc.o(i.RCC_GetClocksFreq)
    RS232_DMA_Init                           0x08001161   Thumb Code   166  dma.o(i.RS232_DMA_Init)
    RS232_Send_Data                          0x08001219   Thumb Code    40  sci.o(i.RS232_Send_Data)
    Read_Bank                                0x08001281   Thumb Code   118  rc522.o(i.Read_Bank)
    Read_ID                                  0x0800131d   Thumb Code    36  rc522.o(i.Read_ID)
    SPI_Cmd                                  0x08001345   Thumb Code    24  stm32f10x_spi.o(i.SPI_Cmd)
    SPI_I2S_GetFlagStatus                    0x0800135d   Thumb Code    18  stm32f10x_spi.o(i.SPI_I2S_GetFlagStatus)
    SPI_I2S_ReceiveData                      0x0800136f   Thumb Code     6  stm32f10x_spi.o(i.SPI_I2S_ReceiveData)
    SPI_I2S_SendData                         0x08001375   Thumb Code     4  stm32f10x_spi.o(i.SPI_I2S_SendData)
    SPI_Init                                 0x08001379   Thumb Code    60  stm32f10x_spi.o(i.SPI_Init)
    SPI_ReadWriteByte                        0x080013b5   Thumb Code    78  spi.o(i.SPI_ReadWriteByte)
    SysTick_CLKSourceConfig                  0x08001545   Thumb Code    40  misc.o(i.SysTick_CLKSourceConfig)
    SystemInit                               0x0800156d   Thumb Code    92  system_stm32f10x_1.o(i.SystemInit)
    TIM2_IRQHandler                          0x080015d9   Thumb Code    88  zqwl-timer.o(i.TIM2_IRQHandler)
    TIM_ClearITPendingBit                    0x08001641   Thumb Code     6  stm32f10x_tim.o(i.TIM_ClearITPendingBit)
    TIM_GetITStatus                          0x08001647   Thumb Code    34  stm32f10x_tim.o(i.TIM_GetITStatus)
    USART2_IRQHandler                        0x08001669   Thumb Code   106  sci.o(i.USART2_IRQHandler)
    USART_232_Configuration                  0x080016e9   Thumb Code   184  sci.o(i.USART_232_Configuration)
    USART_ClearITPendingBit                  0x080017a9   Thumb Code    30  stm32f10x_usart.o(i.USART_ClearITPendingBit)
    USART_Cmd                                0x080017c7   Thumb Code    24  stm32f10x_usart.o(i.USART_Cmd)
    USART_DMACmd                             0x080017df   Thumb Code    18  stm32f10x_usart.o(i.USART_DMACmd)
    USART_GetITStatus                        0x080017f1   Thumb Code    84  stm32f10x_usart.o(i.USART_GetITStatus)
    USART_ITConfig                           0x08001845   Thumb Code    74  stm32f10x_usart.o(i.USART_ITConfig)
    USART_Init                               0x08001891   Thumb Code   210  stm32f10x_usart.o(i.USART_Init)
    WIRELESS_SPI_Init                        0x08001969   Thumb Code   172  spi.o(i.WIRELESS_SPI_Init)
    Write_Bank                               0x08001a59   Thumb Code   116  rc522.o(i.Write_Bank)
    delay_init                               0x08001af1   Thumb Code    50  delay.o(i.delay_init)
    delay_ns                                 0x08001b35   Thumb Code    12  rc522.o(i.delay_ns)
    main                                     0x08001b41   Thumb Code    50  main.o(i.main)
    Region$$Table$$Base                      0x08001b78   Number         0  anon$$obj.o(Region$$Table)
    Region$$Table$$Limit                     0x08001b98   Number         0  anon$$obj.o(Region$$Table)
    RS232_send_data                          0x20000004   Data           4  dma.o(.data)
    RS232_dma_send_flag                      0x20000008   Data           1  dma.o(.data)
    a                                        0x2000000c   Data           1  rc522.o(.data)
    bank                                     0x2000000d   Data           1  rc522.o(.data)
    Read_Flag                                0x2000000e   Data           1  rc522.o(.data)
    card_data                                0x2000000f   Data           6  rc522.o(.data)
    Write_Flag                               0x20000015   Data           1  rc522.o(.data)
    Count_ns                                 0x20000016   Data           1  rc522.o(.data)
    IC_ID                                    0x20000017   Data           4  rc522.o(.data)
    abc                                      0x2000001b   Data           1  rc522.o(.data)
    ucAddr                                   0x2000001c   Data           1  rc522.o(.data)
    status                                   0x2000001d   Data           1  rc522.o(.data)
    RS232_REC_Flag                           0x20000024   Data           1  sci.o(.data)
    RS232_rec_counter                        0x20000028   Data           4  sci.o(.data)
    PassWord                                 0x2000002c   Data           6  sci.o(.data)
    RS232_send_data_length                   0x20000032   Data           2  sci.o(.data)
    Count                                    0x20000034   Data           4  zqwl-timer.o(.data)
    Time1S_Flag                              0x20000038   Data           1  zqwl-timer.o(.data)
    SystemCoreClock                          0x2000003c   Data           4  system_stm32f10x_1.o(.data)
    AHBPrescTable                            0x20000040   Data          16  system_stm32f10x_1.o(.data)
    Test_Buffer1                             0x20000064   Data          16  rc522.o(.bss)
    send_data                                0x20000074   Data          19  rc522.o(.bss)
    Write_Bank_Data                          0x20000087   Data          16  rc522.o(.bss)
    RS232_buff                               0x20000097   Data        1024  sci.o(.bss)
    __libspace_start                         0x20000498   Data          96  libspace.o(.bss)
    __temporary_stack_top$libspace           0x200004f8   Data           0  libspace.o(.bss)



==============================================================================

Memory Map of the image

  Image Entry point : 0x08000131

  Load Region LR_IROM1 (Base: 0x08000000, Size: 0x00001bfc, Max: 0x00040000, ABSOLUTE)

    Execution Region ER_IROM1 (Exec base: 0x08000000, Load base: 0x08000000, Size: 0x00001b98, Max: 0x00040000, ABSOLUTE)

    Exec Addr    Load Addr    Size         Type   Attr      Idx    E Section Name        Object

    0x08000000   0x08000000   0x00000130   Data   RO         3549    RESET               startup_stm32f10x_hd.o
    0x08000130   0x08000130   0x00000008   Code   RO         3558  * !!!main             c_w.l(__main.o)
    0x08000138   0x08000138   0x00000034   Code   RO         3715    !!!scatter          c_w.l(__scatter.o)
    0x0800016c   0x0800016c   0x0000001a   Code   RO         3717    !!handler_copy      c_w.l(__scatter_copy.o)
    0x08000186   0x08000186   0x00000002   PAD
    0x08000188   0x08000188   0x0000001c   Code   RO         3719    !!handler_zi        c_w.l(__scatter_zi.o)
    0x080001a4   0x080001a4   0x00000002   Code   RO         3585    .ARM.Collect$$libinit$$00000000  c_w.l(libinit.o)
    0x080001a6   0x080001a6   0x00000000   Code   RO         3592    .ARM.Collect$$libinit$$00000002  c_w.l(libinit2.o)
    0x080001a6   0x080001a6   0x00000000   Code   RO         3594    .ARM.Collect$$libinit$$00000004  c_w.l(libinit2.o)
    0x080001a6   0x080001a6   0x00000000   Code   RO         3597    .ARM.Collect$$libinit$$0000000A  c_w.l(libinit2.o)
    0x080001a6   0x080001a6   0x00000000   Code   RO         3599    .ARM.Collect$$libinit$$0000000C  c_w.l(libinit2.o)
    0x080001a6   0x080001a6   0x00000000   Code   RO         3601    .ARM.Collect$$libinit$$0000000E  c_w.l(libinit2.o)
    0x080001a6   0x080001a6   0x00000000   Code   RO         3604    .ARM.Collect$$libinit$$00000011  c_w.l(libinit2.o)
    0x080001a6   0x080001a6   0x00000000   Code   RO         3606    .ARM.Collect$$libinit$$00000013  c_w.l(libinit2.o)
    0x080001a6   0x080001a6   0x00000000   Code   RO         3608    .ARM.Collect$$libinit$$00000015  c_w.l(libinit2.o)
    0x080001a6   0x080001a6   0x00000000   Code   RO         3610    .ARM.Collect$$libinit$$00000017  c_w.l(libinit2.o)
    0x080001a6   0x080001a6   0x00000000   Code   RO         3612    .ARM.Collect$$libinit$$00000019  c_w.l(libinit2.o)
    0x080001a6   0x080001a6   0x00000000   Code   RO         3614    .ARM.Collect$$libinit$$0000001B  c_w.l(libinit2.o)
    0x080001a6   0x080001a6   0x00000000   Code   RO         3616    .ARM.Collect$$libinit$$0000001D  c_w.l(libinit2.o)
    0x080001a6   0x080001a6   0x00000000   Code   RO         3618    .ARM.Collect$$libinit$$0000001F  c_w.l(libinit2.o)
    0x080001a6   0x080001a6   0x00000000   Code   RO         3620    .ARM.Collect$$libinit$$00000021  c_w.l(libinit2.o)
    0x080001a6   0x080001a6   0x00000000   Code   RO         3622    .ARM.Collect$$libinit$$00000023  c_w.l(libinit2.o)
    0x080001a6   0x080001a6   0x00000000   Code   RO         3624    .ARM.Collect$$libinit$$00000025  c_w.l(libinit2.o)
    0x080001a6   0x080001a6   0x00000000   Code   RO         3628    .ARM.Collect$$libinit$$0000002C  c_w.l(libinit2.o)
    0x080001a6   0x080001a6   0x00000000   Code   RO         3630    .ARM.Collect$$libinit$$0000002E  c_w.l(libinit2.o)
    0x080001a6   0x080001a6   0x00000000   Code   RO         3632    .ARM.Collect$$libinit$$00000030  c_w.l(libinit2.o)
    0x080001a6   0x080001a6   0x00000000   Code   RO         3634    .ARM.Collect$$libinit$$00000032  c_w.l(libinit2.o)
    0x080001a6   0x080001a6   0x00000002   Code   RO         3635    .ARM.Collect$$libinit$$00000033  c_w.l(libinit2.o)
    0x080001a8   0x080001a8   0x00000002   Code   RO         3655    .ARM.Collect$$libshutdown$$00000000  c_w.l(libshutdown.o)
    0x080001aa   0x080001aa   0x00000000   Code   RO         3668    .ARM.Collect$$libshutdown$$00000002  c_w.l(libshutdown2.o)
    0x080001aa   0x080001aa   0x00000000   Code   RO         3670    .ARM.Collect$$libshutdown$$00000004  c_w.l(libshutdown2.o)
    0x080001aa   0x080001aa   0x00000000   Code   RO         3673    .ARM.Collect$$libshutdown$$00000007  c_w.l(libshutdown2.o)
    0x080001aa   0x080001aa   0x00000000   Code   RO         3676    .ARM.Collect$$libshutdown$$0000000A  c_w.l(libshutdown2.o)
    0x080001aa   0x080001aa   0x00000000   Code   RO         3678    .ARM.Collect$$libshutdown$$0000000C  c_w.l(libshutdown2.o)
    0x080001aa   0x080001aa   0x00000000   Code   RO         3681    .ARM.Collect$$libshutdown$$0000000F  c_w.l(libshutdown2.o)
    0x080001aa   0x080001aa   0x00000002   Code   RO         3682    .ARM.Collect$$libshutdown$$00000010  c_w.l(libshutdown2.o)
    0x080001ac   0x080001ac   0x00000000   Code   RO         3560    .ARM.Collect$$rtentry$$00000000  c_w.l(__rtentry.o)
    0x080001ac   0x080001ac   0x00000000   Code   RO         3562    .ARM.Collect$$rtentry$$00000002  c_w.l(__rtentry2.o)
    0x080001ac   0x080001ac   0x00000006   Code   RO         3574    .ARM.Collect$$rtentry$$00000004  c_w.l(__rtentry4.o)
    0x080001b2   0x080001b2   0x00000000   Code   RO         3564    .ARM.Collect$$rtentry$$00000009  c_w.l(__rtentry2.o)
    0x080001b2   0x080001b2   0x00000004   Code   RO         3565    .ARM.Collect$$rtentry$$0000000A  c_w.l(__rtentry2.o)
    0x080001b6   0x080001b6   0x00000000   Code   RO         3567    .ARM.Collect$$rtentry$$0000000C  c_w.l(__rtentry2.o)
    0x080001b6   0x080001b6   0x00000008   Code   RO         3568    .ARM.Collect$$rtentry$$0000000D  c_w.l(__rtentry2.o)
    0x080001be   0x080001be   0x00000002   Code   RO         3589    .ARM.Collect$$rtexit$$00000000  c_w.l(rtexit.o)
    0x080001c0   0x080001c0   0x00000000   Code   RO         3637    .ARM.Collect$$rtexit$$00000002  c_w.l(rtexit2.o)
    0x080001c0   0x080001c0   0x00000004   Code   RO         3638    .ARM.Collect$$rtexit$$00000003  c_w.l(rtexit2.o)
    0x080001c4   0x080001c4   0x00000006   Code   RO         3639    .ARM.Collect$$rtexit$$00000004  c_w.l(rtexit2.o)
    0x080001ca   0x080001ca   0x00000002   PAD
    0x080001cc   0x080001cc   0x00000040   Code   RO         3550    .text               startup_stm32f10x_hd.o
    0x0800020c   0x0800020c   0x00000006   Code   RO         3556    .text               c_w.l(heapauxi.o)
    0x08000212   0x08000212   0x0000004a   Code   RO         3576    .text               c_w.l(sys_stackheap_outer.o)
    0x0800025c   0x0800025c   0x00000012   Code   RO         3578    .text               c_w.l(exit.o)
    0x0800026e   0x0800026e   0x00000002   PAD
    0x08000270   0x08000270   0x00000008   Code   RO         3586    .text               c_w.l(libspace.o)
    0x08000278   0x08000278   0x0000000c   Code   RO         3647    .text               c_w.l(sys_exit.o)
    0x08000284   0x08000284   0x00000002   Code   RO         3658    .text               c_w.l(use_no_semi.o)
    0x08000286   0x08000286   0x00000000   Code   RO         3660    .text               c_w.l(indicate_semi.o)
    0x08000286   0x08000286   0x0000006c   Code   RO          236    i.CalulateCRC       rc522.o
    0x080002f2   0x080002f2   0x0000001c   Code   RO          237    i.ClearBitMask      rc522.o
    0x0800030e   0x0800030e   0x00000018   Code   RO         1253    i.DMA_Cmd           stm32f10x_dma.o
    0x08000326   0x08000326   0x00000002   PAD
    0x08000328   0x08000328   0x0000014c   Code   RO         1254    i.DMA_DeInit        stm32f10x_dma.o
    0x08000474   0x08000474   0x00000008   Code   RO         1255    i.DMA_GetCurrDataCounter  stm32f10x_dma.o
    0x0800047c   0x0800047c   0x00000012   Code   RO         1258    i.DMA_ITConfig      stm32f10x_dma.o
    0x0800048e   0x0800048e   0x0000003c   Code   RO         1259    i.DMA_Init          stm32f10x_dma.o
    0x080004ca   0x080004ca   0x00000004   Code   RO         1260    i.DMA_SetCurrDataCounter  stm32f10x_dma.o
    0x080004ce   0x080004ce   0x00000116   Code   RO         1677    i.GPIO_Init         stm32f10x_gpio.o
    0x080005e4   0x080005e4   0x00000090   Code   RO         1679    i.GPIO_PinRemapConfig  stm32f10x_gpio.o
    0x08000674   0x08000674   0x00000004   Code   RO         1684    i.GPIO_ResetBits    stm32f10x_gpio.o
    0x08000678   0x08000678   0x00000004   Code   RO         1685    i.GPIO_SetBits      stm32f10x_gpio.o
    0x0800067c   0x0800067c   0x00000054   Code   RO          202    i.LED_Configuration  led.o
    0x080006d0   0x080006d0   0x00000086   Code   RO          238    i.M500PcdConfigISOType  rc522.o
    0x08000756   0x08000756   0x0000004c   Code   RO          441    i.NVIC_Configuration  stm32f107.o
    0x080007a2   0x080007a2   0x00000002   PAD
    0x080007a4   0x080007a4   0x00000070   Code   RO          526    i.NVIC_Init         misc.o
    0x08000814   0x08000814   0x00000014   Code   RO          527    i.NVIC_PriorityGroupConfig  misc.o
    0x08000828   0x08000828   0x00000014   Code   RO          528    i.NVIC_SetVectorTable  misc.o
    0x0800083c   0x0800083c   0x00000050   Code   RO          204    i.One_LED_OFF       led.o
    0x0800088c   0x0800088c   0x00000078   Code   RO          205    i.One_LED_ON        led.o
    0x08000904   0x08000904   0x00000140   Code   RO          239    i.Parse_Data        rc522.o
    0x08000a44   0x08000a44   0x0000000c   Code   RO          240    i.PcdAntennaOff     rc522.o
    0x08000a50   0x08000a50   0x0000001a   Code   RO          241    i.PcdAntennaOn      rc522.o
    0x08000a6a   0x08000a6a   0x00000070   Code   RO          242    i.PcdAnticoll       rc522.o
    0x08000ada   0x08000ada   0x00000002   PAD
    0x08000adc   0x08000adc   0x0000007c   Code   RO          243    i.PcdAuthState      rc522.o
    0x08000b58   0x08000b58   0x000001a0   Code   RO          244    i.PcdComMF522       rc522.o
    0x08000cf8   0x08000cf8   0x00000034   Code   RO          245    i.PcdHalt           rc522.o
    0x08000d2c   0x08000d2c   0x00000054   Code   RO          246    i.PcdRead           rc522.o
    0x08000d80   0x08000d80   0x00000054   Code   RO          247    i.PcdRequest        rc522.o
    0x08000dd4   0x08000dd4   0x00000050   Code   RO          248    i.PcdReset          rc522.o
    0x08000e24   0x08000e24   0x00000072   Code   RO          249    i.PcdSelect         rc522.o
    0x08000e96   0x08000e96   0x00000092   Code   RO          250    i.PcdWrite          rc522.o
    0x08000f28   0x08000f28   0x00000046   Code   RO          252    i.RC522_Reset       rc522.o
    0x08000f6e   0x08000f6e   0x00000002   PAD
    0x08000f70   0x08000f70   0x00000020   Code   RO         2092    i.RCC_AHBPeriphClockCmd  stm32f10x_rcc.o
    0x08000f90   0x08000f90   0x00000020   Code   RO         2094    i.RCC_APB1PeriphClockCmd  stm32f10x_rcc.o
    0x08000fb0   0x08000fb0   0x00000020   Code   RO         2096    i.RCC_APB2PeriphClockCmd  stm32f10x_rcc.o
    0x08000fd0   0x08000fd0   0x00000190   Code   RO         2104    i.RCC_GetClocksFreq  stm32f10x_rcc.o
    0x08001160   0x08001160   0x000000b8   Code   RO          160    i.RS232_DMA_Init    dma.o
    0x08001218   0x08001218   0x0000002c   Code   RO          386    i.RS232_Send_Data   sci.o
    0x08001244   0x08001244   0x0000003c   Code   RO          253    i.ReadRawRC         rc522.o
    0x08001280   0x08001280   0x0000009c   Code   RO          254    i.Read_Bank         rc522.o
    0x0800131c   0x0800131c   0x00000028   Code   RO          255    i.Read_ID           rc522.o
    0x08001344   0x08001344   0x00000018   Code   RO         2626    i.SPI_Cmd           stm32f10x_spi.o
    0x0800135c   0x0800135c   0x00000012   Code   RO         2634    i.SPI_I2S_GetFlagStatus  stm32f10x_spi.o
    0x0800136e   0x0800136e   0x00000006   Code   RO         2637    i.SPI_I2S_ReceiveData  stm32f10x_spi.o
    0x08001374   0x08001374   0x00000004   Code   RO         2638    i.SPI_I2S_SendData  stm32f10x_spi.o
    0x08001378   0x08001378   0x0000003c   Code   RO         2639    i.SPI_Init          stm32f10x_spi.o
    0x080013b4   0x080013b4   0x00000054   Code   RO          423    i.SPI_ReadWriteByte  spi.o
    0x08001408   0x08001408   0x0000001c   Code   RO          256    i.SetBitMask        rc522.o
    0x08001424   0x08001424   0x00000008   Code   RO          492    i.SetSysClock       system_stm32f10x_1.o
    0x0800142c   0x0800142c   0x00000118   Code   RO          493    i.SetSysClockTo72   system_stm32f10x_1.o
    0x08001544   0x08001544   0x00000028   Code   RO          530    i.SysTick_CLKSourceConfig  misc.o
    0x0800156c   0x0800156c   0x0000006c   Code   RO          495    i.SystemInit        system_stm32f10x_1.o
    0x080015d8   0x080015d8   0x00000068   Code   RO          460    i.TIM2_IRQHandler   zqwl-timer.o
    0x08001640   0x08001640   0x00000006   Code   RO         2776    i.TIM_ClearITPendingBit  stm32f10x_tim.o
    0x08001646   0x08001646   0x00000022   Code   RO         2802    i.TIM_GetITStatus   stm32f10x_tim.o
    0x08001668   0x08001668   0x00000080   Code   RO          387    i.USART2_IRQHandler  sci.o
    0x080016e8   0x080016e8   0x000000c0   Code   RO          388    i.USART_232_Configuration  sci.o
    0x080017a8   0x080017a8   0x0000001e   Code   RO         3314    i.USART_ClearITPendingBit  stm32f10x_usart.o
    0x080017c6   0x080017c6   0x00000018   Code   RO         3317    i.USART_Cmd         stm32f10x_usart.o
    0x080017de   0x080017de   0x00000012   Code   RO         3318    i.USART_DMACmd      stm32f10x_usart.o
    0x080017f0   0x080017f0   0x00000054   Code   RO         3321    i.USART_GetITStatus  stm32f10x_usart.o
    0x08001844   0x08001844   0x0000004a   Code   RO         3323    i.USART_ITConfig    stm32f10x_usart.o
    0x0800188e   0x0800188e   0x00000002   PAD
    0x08001890   0x08001890   0x000000d8   Code   RO         3324    i.USART_Init        stm32f10x_usart.o
    0x08001968   0x08001968   0x000000bc   Code   RO          424    i.WIRELESS_SPI_Init  spi.o
    0x08001a24   0x08001a24   0x00000034   Code   RO          257    i.WriteRawRC        rc522.o
    0x08001a58   0x08001a58   0x00000098   Code   RO          258    i.Write_Bank        rc522.o
    0x08001af0   0x08001af0   0x00000044   Code   RO          134    i.delay_init        delay.o
    0x08001b34   0x08001b34   0x0000000c   Code   RO          259    i.delay_ns          rc522.o
    0x08001b40   0x08001b40   0x00000038   Code   RO            1    i.main              main.o
    0x08001b78   0x08001b78   0x00000020   Data   RO         3713    Region$$Table       anon$$obj.o


    Execution Region RW_IRAM1 (Exec base: 0x20000000, Load base: 0x08001b98, Size: 0x00000af8, Max: 0x00010000, ABSOLUTE)

    Exec Addr    Load Addr    Size         Type   Attr      Idx    E Section Name        Object

    0x20000000   0x08001b98   0x00000004   Data   RW          137    .data               delay.o
    0x20000004   0x08001b9c   0x00000005   Data   RW          161    .data               dma.o
    0x20000009   0x08001ba1   0x00000003   PAD
    0x2000000c   0x08001ba4   0x00000018   Data   RW          261    .data               rc522.o
    0x20000024   0x08001bbc   0x00000010   Data   RW          390    .data               sci.o
    0x20000034   0x08001bcc   0x00000005   Data   RW          461    .data               zqwl-timer.o
    0x20000039   0x08001bd1   0x00000003   PAD
    0x2000003c   0x08001bd4   0x00000014   Data   RW          496    .data               system_stm32f10x_1.o
    0x20000050   0x08001be8   0x00000014   Data   RW         2132    .data               stm32f10x_rcc.o
    0x20000064        -       0x00000033   Zero   RW          260    .bss                rc522.o
    0x20000097        -       0x00000400   Zero   RW          389    .bss                sci.o
    0x20000497   0x08001bfc   0x00000001   PAD
    0x20000498        -       0x00000060   Zero   RW         3587    .bss                c_w.l(libspace.o)
    0x200004f8        -       0x00000200   Zero   RW         3548    HEAP                startup_stm32f10x_hd.o
    0x200006f8        -       0x00000400   Zero   RW         3547    STACK               startup_stm32f10x_hd.o


==============================================================================

Image component sizes


      Code (inc. data)   RO Data    RW Data    ZI Data      Debug   Object Name

         0          0          0          0          0         32   core_cm3.o
        68         18          0          4          0        653   delay.o
       184         18          0          5          0        911   dma.o
       284         12          0          0          0       1579   led.o
        56          6          0          0          0     291635   main.o
       192         30          0          0          0       2731   misc.o
      2410        120          0         24         51      16232   rc522.o
       364         34          0         16       1024       2738   sci.o
       272         22          0          0          0       1268   spi.o
        64         26        304          0       1536        896   startup_stm32f10x_hd.o
        76          0          0          0          0        533   stm32f107.o
       446          8          0          0          0       5319   stm32f10x_dma.o
       430          6          0          0          0       4006   stm32f10x_gpio.o
       496         44          0         20          0       5946   stm32f10x_rcc.o
       112          0          0          0          0       3994   stm32f10x_spi.o
        40          0          0          0          0       1842   stm32f10x_tim.o
       446          6          0          0          0       5855   stm32f10x_usart.o
       396         32          0         20          0       2529   system_stm32f10x_1.o
       104         16          0          5          0        782   zqwl-timer.o

    ----------------------------------------------------------------------
      6450        398        336        100       2612     349481   Object Totals
         0          0         32          0          0          0   (incl. Generated)
        10          0          0          6          1          0   (incl. Padding)

    ----------------------------------------------------------------------

      Code (inc. data)   RO Data    RW Data    ZI Data      Debug   Library Member Name

         8          0          0          0          0         68   __main.o
         0          0          0          0          0          0   __rtentry.o
        12          0          0          0          0          0   __rtentry2.o
         6          0          0          0          0          0   __rtentry4.o
        52          8          0          0          0          0   __scatter.o
        26          0          0          0          0          0   __scatter_copy.o
        28          0          0          0          0          0   __scatter_zi.o
        18          0          0          0          0         80   exit.o
         6          0          0          0          0        152   heapauxi.o
         0          0          0          0          0          0   indicate_semi.o
         2          0          0          0          0          0   libinit.o
         2          0          0          0          0          0   libinit2.o
         2          0          0          0          0          0   libshutdown.o
         2          0          0          0          0          0   libshutdown2.o
         8          4          0          0         96         68   libspace.o
         2          0          0          0          0          0   rtexit.o
        10          0          0          0          0          0   rtexit2.o
        12          4          0          0          0         68   sys_exit.o
        74          0          0          0          0         80   sys_stackheap_outer.o
         2          0          0          0          0         68   use_no_semi.o

    ----------------------------------------------------------------------
       278         16          0          0         96        584   Library Totals
         6          0          0          0          0          0   (incl. Padding)

    ----------------------------------------------------------------------

      Code (inc. data)   RO Data    RW Data    ZI Data      Debug   Library Name

       272         16          0          0         96        584   c_w.l

    ----------------------------------------------------------------------
       278         16          0          0         96        584   Library Totals

    ----------------------------------------------------------------------

==============================================================================


      Code (inc. data)   RO Data    RW Data    ZI Data      Debug   

      6728        414        336        100       2708     346421   Grand Totals
      6728        414        336        100       2708     346421   ELF Image Totals
      6728        414        336        100          0          0   ROM Totals

==============================================================================

    Total RO  Size (Code + RO Data)                 7064 (   6.90kB)
    Total RW  Size (RW Data + ZI Data)              2808 (   2.74kB)
    Total ROM Size (Code + RO Data + RW Data)       7164 (   7.00kB)

==============================================================================

